:1000000009C021C020C01FC01EC01DC01CC01BC015
:100010001AC01AC011241FBECFE9CDBF10E0A0E660
:10002000B0E0E0EEF1E002C005900D92A236B1071B
:10003000D9F720E0A2E6B0E001C01D92AB36B207CE
:10004000E1F762D0CBC0DCCF1F920F920FB60F92B8
:1000500011248F939F93809160009091610001978C
:100060009093610080936000009741F4C29A8EE5FE
:1000700090E090936100809360001AC08F339105E7
:1000800049F484B195B1909367008093660083E052
:1000900087B925C08E33910539F484B195B1909319
:1000A0006500809364001BC08F32910519F4C298DB
:1000B00082E0EECF8032910539F484B195B190930E
:1000C0006A0080936900E3CF4F9749F484B195B1FA
:1000D000909363008093620081E080936800369A79
:1000E0009F918F910F900FBE0F901F90189582E0F7
:1000F00087B98FE986B9369A089580E286BF83E88A
:100100008FBD82E083BF089580E886BD16BC85E080
:1001100087BBF3DFECDF7894E3E0F0E080916800E8
:100120008823E1F3109268002091690030916A0001
:1001300080916600909167008217930778F720916D
:100140006200309163008091640090916500821795
:10015000930720F78091690090916A006091660092
:1001600070916700209162003091630040916400BB
:1001700050916500861B970B241B350B821B930B3C
:10018000BF0105D0CB0180589F4F86BFC7CF97FBDB
:10019000072E16F4009406D077FD08D00BD007FC8C
:1001A00005D03EF4909581959F4F08957095619587
:1001B0007F4F0895AA1BBB1B51E107C0AA1FBB1F9D
:1001C000A617B70710F0A61BB70B881F991F5A95E3
:1001D000A9F780959095BC01CD010895F894FFCFC3
:0201E0006400B9
:00000001FF
